{
  "contractName": "NFT",
  "abi": [
    {
      "inputs": [
        {
          "internalType": "address",
          "name": "marketplaceAddress",
          "type": "address"
        }
      ],
      "stateMutability": "nonpayable",
      "type": "constructor"
    },
    {
      "anonymous": false,
      "inputs": [
        {
          "indexed": true,
          "internalType": "address",
          "name": "owner",
          "type": "address"
        },
        {
          "indexed": true,
          "internalType": "address",
          "name": "approved",
          "type": "address"
        },
        {
          "indexed": true,
          "internalType": "uint256",
          "name": "tokenId",
          "type": "uint256"
        }
      ],
      "name": "Approval",
      "type": "event"
    },
    {
      "anonymous": false,
      "inputs": [
        {
          "indexed": true,
          "internalType": "address",
          "name": "owner",
          "type": "address"
        },
        {
          "indexed": true,
          "internalType": "address",
          "name": "operator",
          "type": "address"
        },
        {
          "indexed": false,
          "internalType": "bool",
          "name": "approved",
          "type": "bool"
        }
      ],
      "name": "ApprovalForAll",
      "type": "event"
    },
    {
      "anonymous": false,
      "inputs": [
        {
          "indexed": true,
          "internalType": "address",
          "name": "from",
          "type": "address"
        },
        {
          "indexed": true,
          "internalType": "address",
          "name": "to",
          "type": "address"
        },
        {
          "indexed": true,
          "internalType": "uint256",
          "name": "tokenId",
          "type": "uint256"
        }
      ],
      "name": "Transfer",
      "type": "event"
    },
    {
      "inputs": [
        {
          "internalType": "address",
          "name": "to",
          "type": "address"
        },
        {
          "internalType": "uint256",
          "name": "tokenId",
          "type": "uint256"
        }
      ],
      "name": "approve",
      "outputs": [],
      "stateMutability": "nonpayable",
      "type": "function"
    },
    {
      "inputs": [
        {
          "internalType": "address",
          "name": "owner",
          "type": "address"
        }
      ],
      "name": "balanceOf",
      "outputs": [
        {
          "internalType": "uint256",
          "name": "",
          "type": "uint256"
        }
      ],
      "stateMutability": "view",
      "type": "function",
      "constant": true
    },
    {
      "inputs": [
        {
          "internalType": "uint256",
          "name": "tokenId",
          "type": "uint256"
        }
      ],
      "name": "getApproved",
      "outputs": [
        {
          "internalType": "address",
          "name": "",
          "type": "address"
        }
      ],
      "stateMutability": "view",
      "type": "function",
      "constant": true
    },
    {
      "inputs": [
        {
          "internalType": "address",
          "name": "owner",
          "type": "address"
        },
        {
          "internalType": "address",
          "name": "operator",
          "type": "address"
        }
      ],
      "name": "isApprovedForAll",
      "outputs": [
        {
          "internalType": "bool",
          "name": "",
          "type": "bool"
        }
      ],
      "stateMutability": "view",
      "type": "function",
      "constant": true
    },
    {
      "inputs": [],
      "name": "name",
      "outputs": [
        {
          "internalType": "string",
          "name": "",
          "type": "string"
        }
      ],
      "stateMutability": "view",
      "type": "function",
      "constant": true
    },
    {
      "inputs": [
        {
          "internalType": "uint256",
          "name": "tokenId",
          "type": "uint256"
        }
      ],
      "name": "ownerOf",
      "outputs": [
        {
          "internalType": "address",
          "name": "",
          "type": "address"
        }
      ],
      "stateMutability": "view",
      "type": "function",
      "constant": true
    },
    {
      "inputs": [
        {
          "internalType": "address",
          "name": "from",
          "type": "address"
        },
        {
          "internalType": "address",
          "name": "to",
          "type": "address"
        },
        {
          "internalType": "uint256",
          "name": "tokenId",
          "type": "uint256"
        }
      ],
      "name": "safeTransferFrom",
      "outputs": [],
      "stateMutability": "nonpayable",
      "type": "function"
    },
    {
      "inputs": [
        {
          "internalType": "address",
          "name": "from",
          "type": "address"
        },
        {
          "internalType": "address",
          "name": "to",
          "type": "address"
        },
        {
          "internalType": "uint256",
          "name": "tokenId",
          "type": "uint256"
        },
        {
          "internalType": "bytes",
          "name": "data",
          "type": "bytes"
        }
      ],
      "name": "safeTransferFrom",
      "outputs": [],
      "stateMutability": "nonpayable",
      "type": "function"
    },
    {
      "inputs": [
        {
          "internalType": "address",
          "name": "operator",
          "type": "address"
        },
        {
          "internalType": "bool",
          "name": "approved",
          "type": "bool"
        }
      ],
      "name": "setApprovalForAll",
      "outputs": [],
      "stateMutability": "nonpayable",
      "type": "function"
    },
    {
      "inputs": [
        {
          "internalType": "bytes4",
          "name": "interfaceId",
          "type": "bytes4"
        }
      ],
      "name": "supportsInterface",
      "outputs": [
        {
          "internalType": "bool",
          "name": "",
          "type": "bool"
        }
      ],
      "stateMutability": "view",
      "type": "function",
      "constant": true
    },
    {
      "inputs": [],
      "name": "symbol",
      "outputs": [
        {
          "internalType": "string",
          "name": "",
          "type": "string"
        }
      ],
      "stateMutability": "view",
      "type": "function",
      "constant": true
    },
    {
      "inputs": [
        {
          "internalType": "uint256",
          "name": "tokenId",
          "type": "uint256"
        }
      ],
      "name": "tokenURI",
      "outputs": [
        {
          "internalType": "string",
          "name": "",
          "type": "string"
        }
      ],
      "stateMutability": "view",
      "type": "function",
      "constant": true
    },
    {
      "inputs": [
        {
          "internalType": "address",
          "name": "from",
          "type": "address"
        },
        {
          "internalType": "address",
          "name": "to",
          "type": "address"
        },
        {
          "internalType": "uint256",
          "name": "tokenId",
          "type": "uint256"
        }
      ],
      "name": "transferFrom",
      "outputs": [],
      "stateMutability": "nonpayable",
      "type": "function"
    },
    {
      "inputs": [
        {
          "internalType": "string",
          "name": "nftTokenURl",
          "type": "string"
        }
      ],
      "name": "createNFtToken",
      "outputs": [
        {
          "internalType": "uint256",
          "name": "",
          "type": "uint256"
        }
      ],
      "stateMutability": "nonpayable",
      "type": "function"
    }
  ],
  "bytecode": "0x60806040523480156200001157600080fd5b5060405162002ba138038062002ba1833981810160405281019062000037919062000239565b6040518060400160405280600e81526020017f556e7265616c204b696e67646f6d0000000000000000000000000000000000008152506040518060400160405280600481526020017f556e4b69000000000000000000000000000000000000000000000000000000008152508160009080519060200190620000bb9291906200011f565b508060019080519060200190620000d49291906200011f565b50505080600860006101000a81548173ffffffffffffffffffffffffffffffffffffffff021916908373ffffffffffffffffffffffffffffffffffffffff16021790555050620002d0565b8280546200012d906200029a565b90600052602060002090601f0160209004810192826200015157600085556200019d565b82601f106200016c57805160ff19168380011785556200019d565b828001600101855582156200019d579182015b828111156200019c5782518255916020019190600101906200017f565b5b509050620001ac9190620001b0565b5090565b5b80821115620001cb576000816000905550600101620001b1565b5090565b600080fd5b600073ffffffffffffffffffffffffffffffffffffffff82169050919050565b60006200020182620001d4565b9050919050565b6200021381620001f4565b81146200021f57600080fd5b50565b600081519050620002338162000208565b92915050565b600060208284031215620002525762000251620001cf565b5b6000620002628482850162000222565b91505092915050565b7f4e487b7100000000000000000000000000000000000000000000000000000000600052602260045260246000fd5b60006002820490506001821680620002b357607f821691505b60208210811415620002ca57620002c96200026b565b5b50919050565b6128c180620002e06000396000f3fe608060405234801561001057600080fd5b50600436106100ea5760003560e01c806370a082311161008c578063b88d4fde11610066578063b88d4fde1461025b578063c87b56dd14610277578063cb18ee7b146102a7578063e985e9c5146102d7576100ea565b806370a08231146101f157806395d89b4114610221578063a22cb4651461023f576100ea565b8063095ea7b3116100c8578063095ea7b31461016d57806323b872dd1461018957806342842e0e146101a55780636352211e146101c1576100ea565b806301ffc9a7146100ef57806306fdde031461011f578063081812fc1461013d575b600080fd5b610109600480360381019061010491906118a4565b610307565b60405161011691906118ec565b60405180910390f35b6101276103e9565b60405161013491906119a0565b60405180910390f35b610157600480360381019061015291906119f8565b61047b565b6040516101649190611a66565b60405180910390f35b61018760048036038101906101829190611aad565b6104c1565b005b6101a3600480360381019061019e9190611aed565b6105d9565b005b6101bf60048036038101906101ba9190611aed565b610639565b005b6101db60048036038101906101d691906119f8565b610659565b6040516101e89190611a66565b60405180910390f35b61020b60048036038101906102069190611b40565b61070b565b6040516102189190611b7c565b60405180910390f35b6102296107c3565b60405161023691906119a0565b60405180910390f35b61025960048036038101906102549190611bc3565b610855565b005b61027560048036038101906102709190611d38565b61086b565b005b610291600480360381019061028c91906119f8565b6108cd565b60405161029e91906119a0565b60405180910390f35b6102c160048036038101906102bc9190611e5c565b6109e0565b6040516102ce9190611b7c565b60405180910390f35b6102f160048036038101906102ec9190611ea5565b610a44565b6040516102fe91906118ec565b60405180910390f35b60007f80ac58cd000000000000000000000000000000000000000000000000000000007bffffffffffffffffffffffffffffffffffffffffffffffffffffffff1916827bffffffffffffffffffffffffffffffffffffffffffffffffffffffff191614806103d257507f5b5e139f000000000000000000000000000000000000000000000000000000007bffffffffffffffffffffffffffffffffffffffffffffffffffffffff1916827bffffffffffffffffffffffffffffffffffffffffffffffffffffffff1916145b806103e257506103e182610ad8565b5b9050919050565b6060600080546103f890611f14565b80601f016020809104026020016040519081016040528092919081815260200182805461042490611f14565b80156104715780601f1061044657610100808354040283529160200191610471565b820191906000526020600020905b81548152906001019060200180831161045457829003601f168201915b5050505050905090565b600061048682610b42565b6004600083815260200190815260200160002060009054906101000a900473ffffffffffffffffffffffffffffffffffffffff169050919050565b60006104cc82610659565b90508073ffffffffffffffffffffffffffffffffffffffff168373ffffffffffffffffffffffffffffffffffffffff16141561053d576040517f08c379a000000000000000000000000000000000000000000000000000000000815260040161053490611fb8565b60405180910390fd5b8073ffffffffffffffffffffffffffffffffffffffff1661055c610b8d565b73ffffffffffffffffffffffffffffffffffffffff16148061058b575061058a81610585610b8d565b610a44565b5b6105ca576040517f08c379a00000000000000000000000000000000000000000000000000000000081526004016105c19061204a565b60405180910390fd5b6105d48383610b95565b505050565b6105ea6105e4610b8d565b82610c4e565b610629576040517f08c379a0000000000000000000000000000000000000000000000000000000008152600401610620906120dc565b60405180910390fd5b610634838383610ce3565b505050565b6106548383836040518060200160405280600081525061086b565b505050565b6000806002600084815260200190815260200160002060009054906101000a900473ffffffffffffffffffffffffffffffffffffffff169050600073ffffffffffffffffffffffffffffffffffffffff168173ffffffffffffffffffffffffffffffffffffffff161415610702576040517f08c379a00000000000000000000000000000000000000000000000000000000081526004016106f990612148565b60405180910390fd5b80915050919050565b60008073ffffffffffffffffffffffffffffffffffffffff168273ffffffffffffffffffffffffffffffffffffffff16141561077c576040517f08c379a0000000000000000000000000000000000000000000000000000000008152600401610773906121da565b60405180910390fd5b600360008373ffffffffffffffffffffffffffffffffffffffff1673ffffffffffffffffffffffffffffffffffffffff168152602001908152602001600020549050919050565b6060600180546107d290611f14565b80601f01602080910402602001604051908101604052809291908181526020018280546107fe90611f14565b801561084b5780601f106108205761010080835404028352916020019161084b565b820191906000526020600020905b81548152906001019060200180831161082e57829003601f168201915b5050505050905090565b610867610860610b8d565b8383610f4a565b5050565b61087c610876610b8d565b83610c4e565b6108bb576040517f08c379a00000000000000000000000000000000000000000000000000000000081526004016108b2906120dc565b60405180910390fd5b6108c7848484846110b7565b50505050565b60606108d882610b42565b60006006600084815260200190815260200160002080546108f890611f14565b80601f016020809104026020016040519081016040528092919081815260200182805461092490611f14565b80156109715780601f1061094657610100808354040283529160200191610971565b820191906000526020600020905b81548152906001019060200180831161095457829003601f168201915b505050505090506000610982611113565b90506000815114156109985781925050506109db565b6000825111156109cd5780826040516020016109b5929190612236565b604051602081830303815290604052925050506109db565b6109d68461112a565b925050505b919050565b60006109ec6007611192565b60006109f860076111a8565b9050610a0433826111b6565b610a0e8184611390565b610a3b600860009054906101000a900473ffffffffffffffffffffffffffffffffffffffff166001610855565b80915050919050565b6000600560008473ffffffffffffffffffffffffffffffffffffffff1673ffffffffffffffffffffffffffffffffffffffff16815260200190815260200160002060008373ffffffffffffffffffffffffffffffffffffffff1673ffffffffffffffffffffffffffffffffffffffff16815260200190815260200160002060009054906101000a900460ff16905092915050565b60007f01ffc9a7000000000000000000000000000000000000000000000000000000007bffffffffffffffffffffffffffffffffffffffffffffffffffffffff1916827bffffffffffffffffffffffffffffffffffffffffffffffffffffffff1916149050919050565b610b4b81611404565b610b8a576040517f08c379a0000000000000000000000000000000000000000000000000000000008152600401610b8190612148565b60405180910390fd5b50565b600033905090565b816004600083815260200190815260200160002060006101000a81548173ffffffffffffffffffffffffffffffffffffffff021916908373ffffffffffffffffffffffffffffffffffffffff160217905550808273ffffffffffffffffffffffffffffffffffffffff16610c0883610659565b73ffffffffffffffffffffffffffffffffffffffff167f8c5be1e5ebec7d5bd14f71427d1e84f3dd0314c0f7b2291e5b200ac8c7c3b92560405160405180910390a45050565b600080610c5a83610659565b90508073ffffffffffffffffffffffffffffffffffffffff168473ffffffffffffffffffffffffffffffffffffffff161480610c9c5750610c9b8185610a44565b5b80610cda57508373ffffffffffffffffffffffffffffffffffffffff16610cc28461047b565b73ffffffffffffffffffffffffffffffffffffffff16145b91505092915050565b8273ffffffffffffffffffffffffffffffffffffffff16610d0382610659565b73ffffffffffffffffffffffffffffffffffffffff1614610d59576040517f08c379a0000000000000000000000000000000000000000000000000000000008152600401610d50906122cc565b60405180910390fd5b600073ffffffffffffffffffffffffffffffffffffffff168273ffffffffffffffffffffffffffffffffffffffff161415610dc9576040517f08c379a0000000000000000000000000000000000000000000000000000000008152600401610dc09061235e565b60405180910390fd5b610dd4838383611470565b610ddf600082610b95565b6001600360008573ffffffffffffffffffffffffffffffffffffffff1673ffffffffffffffffffffffffffffffffffffffff1681526020019081526020016000206000828254610e2f91906123ad565b925050819055506001600360008473ffffffffffffffffffffffffffffffffffffffff1673ffffffffffffffffffffffffffffffffffffffff1681526020019081526020016000206000828254610e8691906123e1565b92505081905550816002600083815260200190815260200160002060006101000a81548173ffffffffffffffffffffffffffffffffffffffff021916908373ffffffffffffffffffffffffffffffffffffffff160217905550808273ffffffffffffffffffffffffffffffffffffffff168473ffffffffffffffffffffffffffffffffffffffff167fddf252ad1be2c89b69c2b068fc378daa952ba7f163c4a11628f55a4df523b3ef60405160405180910390a4610f45838383611475565b505050565b8173ffffffffffffffffffffffffffffffffffffffff168373ffffffffffffffffffffffffffffffffffffffff161415610fb9576040517f08c379a0000000000000000000000000000000000000000000000000000000008152600401610fb090612483565b60405180910390fd5b80600560008573ffffffffffffffffffffffffffffffffffffffff1673ffffffffffffffffffffffffffffffffffffffff16815260200190815260200160002060008473ffffffffffffffffffffffffffffffffffffffff1673ffffffffffffffffffffffffffffffffffffffff16815260200190815260200160002060006101000a81548160ff0219169083151502179055508173ffffffffffffffffffffffffffffffffffffffff168373ffffffffffffffffffffffffffffffffffffffff167f17307eab39ab6107e8899845ad3d59bd9653f200f220920489ca2b5937696c31836040516110aa91906118ec565b60405180910390a3505050565b6110c2848484610ce3565b6110ce8484848461147a565b61110d576040517f08c379a000000000000000000000000000000000000000000000000000000000815260040161110490612515565b60405180910390fd5b50505050565b606060405180602001604052806000815250905090565b606061113582610b42565b600061113f611113565b9050600081511161115f576040518060200160405280600081525061118a565b8061116984611611565b60405160200161117a929190612236565b6040516020818303038152906040525b915050919050565b6001816000016000828254019250508190555050565b600081600001549050919050565b600073ffffffffffffffffffffffffffffffffffffffff168273ffffffffffffffffffffffffffffffffffffffff161415611226576040517f08c379a000000000000000000000000000000000000000000000000000000000815260040161121d90612581565b60405180910390fd5b61122f81611404565b1561126f576040517f08c379a0000000000000000000000000000000000000000000000000000000008152600401611266906125ed565b60405180910390fd5b61127b60008383611470565b6001600360008473ffffffffffffffffffffffffffffffffffffffff1673ffffffffffffffffffffffffffffffffffffffff16815260200190815260200160002060008282546112cb91906123e1565b92505081905550816002600083815260200190815260200160002060006101000a81548173ffffffffffffffffffffffffffffffffffffffff021916908373ffffffffffffffffffffffffffffffffffffffff160217905550808273ffffffffffffffffffffffffffffffffffffffff16600073ffffffffffffffffffffffffffffffffffffffff167fddf252ad1be2c89b69c2b068fc378daa952ba7f163c4a11628f55a4df523b3ef60405160405180910390a461138c60008383611475565b5050565b61139982611404565b6113d8576040517f08c379a00000000000000000000000000000000000000000000000000000000081526004016113cf9061267f565b60405180910390fd5b806006600084815260200190815260200160002090805190602001906113ff929190611795565b505050565b60008073ffffffffffffffffffffffffffffffffffffffff166002600084815260200190815260200160002060009054906101000a900473ffffffffffffffffffffffffffffffffffffffff1673ffffffffffffffffffffffffffffffffffffffff1614159050919050565b505050565b505050565b600061149b8473ffffffffffffffffffffffffffffffffffffffff16611772565b15611604578373ffffffffffffffffffffffffffffffffffffffff1663150b7a026114c4610b8d565b8786866040518563ffffffff1660e01b81526004016114e694939291906126f4565b602060405180830381600087803b15801561150057600080fd5b505af192505050801561153157506040513d601f19601f8201168201806040525081019061152e9190612755565b60015b6115b4573d8060008114611561576040519150601f19603f3d011682016040523d82523d6000602084013e611566565b606091505b506000815114156115ac576040517f08c379a00000000000000000000000000000000000000000000000000000000081526004016115a390612515565b60405180910390fd5b805181602001fd5b63150b7a0260e01b7bffffffffffffffffffffffffffffffffffffffffffffffffffffffff1916817bffffffffffffffffffffffffffffffffffffffffffffffffffffffff191614915050611609565b600190505b949350505050565b60606000821415611659576040518060400160405280600181526020017f3000000000000000000000000000000000000000000000000000000000000000815250905061176d565b600082905060005b6000821461168b57808061167490612782565b915050600a8261168491906127fa565b9150611661565b60008167ffffffffffffffff8111156116a7576116a6611c0d565b5b6040519080825280601f01601f1916602001820160405280156116d95781602001600182028036833780820191505090505b5090505b60008514611766576001826116f291906123ad565b9150600a85611701919061282b565b603061170d91906123e1565b60f81b8183815181106117235761172261285c565b5b60200101907effffffffffffffffffffffffffffffffffffffffffffffffffffffffffffff1916908160001a905350600a8561175f91906127fa565b94506116dd565b8093505050505b919050565b6000808273ffffffffffffffffffffffffffffffffffffffff163b119050919050565b8280546117a190611f14565b90600052602060002090601f0160209004810192826117c3576000855561180a565b82601f106117dc57805160ff191683800117855561180a565b8280016001018555821561180a579182015b828111156118095782518255916020019190600101906117ee565b5b509050611817919061181b565b5090565b5b8082111561183457600081600090555060010161181c565b5090565b6000604051905090565b600080fd5b600080fd5b60007fffffffff0000000000000000000000000000000000000000000000000000000082169050919050565b6118818161184c565b811461188c57600080fd5b50565b60008135905061189e81611878565b92915050565b6000602082840312156118ba576118b9611842565b5b60006118c88482850161188f565b91505092915050565b60008115159050919050565b6118e6816118d1565b82525050565b600060208201905061190160008301846118dd565b92915050565b600081519050919050565b600082825260208201905092915050565b60005b83811015611941578082015181840152602081019050611926565b83811115611950576000848401525b50505050565b6000601f19601f8301169050919050565b600061197282611907565b61197c8185611912565b935061198c818560208601611923565b61199581611956565b840191505092915050565b600060208201905081810360008301526119ba8184611967565b905092915050565b6000819050919050565b6119d5816119c2565b81146119e057600080fd5b50565b6000813590506119f2816119cc565b92915050565b600060208284031215611a0e57611a0d611842565b5b6000611a1c848285016119e3565b91505092915050565b600073ffffffffffffffffffffffffffffffffffffffff82169050919050565b6000611a5082611a25565b9050919050565b611a6081611a45565b82525050565b6000602082019050611a7b6000830184611a57565b92915050565b611a8a81611a45565b8114611a9557600080fd5b50565b600081359050611aa781611a81565b92915050565b60008060408385031215611ac457611ac3611842565b5b6000611ad285828601611a98565b9250506020611ae3858286016119e3565b9150509250929050565b600080600060608486031215611b0657611b05611842565b5b6000611b1486828701611a98565b9350506020611b2586828701611a98565b9250506040611b36868287016119e3565b9150509250925092565b600060208284031215611b5657611b55611842565b5b6000611b6484828501611a98565b91505092915050565b611b76816119c2565b82525050565b6000602082019050611b916000830184611b6d565b92915050565b611ba0816118d1565b8114611bab57600080fd5b50565b600081359050611bbd81611b97565b92915050565b60008060408385031215611bda57611bd9611842565b5b6000611be885828601611a98565b9250506020611bf985828601611bae565b9150509250929050565b600080fd5b600080fd5b7f4e487b7100000000000000000000000000000000000000000000000000000000600052604160045260246000fd5b611c4582611956565b810181811067ffffffffffffffff82111715611c6457611c63611c0d565b5b80604052505050565b6000611c77611838565b9050611c838282611c3c565b919050565b600067ffffffffffffffff821115611ca357611ca2611c0d565b5b611cac82611956565b9050602081019050919050565b82818337600083830152505050565b6000611cdb611cd684611c88565b611c6d565b905082815260208101848484011115611cf757611cf6611c08565b5b611d02848285611cb9565b509392505050565b600082601f830112611d1f57611d1e611c03565b5b8135611d2f848260208601611cc8565b91505092915050565b60008060008060808587031215611d5257611d51611842565b5b6000611d6087828801611a98565b9450506020611d7187828801611a98565b9350506040611d82878288016119e3565b925050606085013567ffffffffffffffff811115611da357611da2611847565b5b611daf87828801611d0a565b91505092959194509250565b600067ffffffffffffffff821115611dd657611dd5611c0d565b5b611ddf82611956565b9050602081019050919050565b6000611dff611dfa84611dbb565b611c6d565b905082815260208101848484011115611e1b57611e1a611c08565b5b611e26848285611cb9565b509392505050565b600082601f830112611e4357611e42611c03565b5b8135611e53848260208601611dec565b91505092915050565b600060208284031215611e7257611e71611842565b5b600082013567ffffffffffffffff811115611e9057611e8f611847565b5b611e9c84828501611e2e565b91505092915050565b60008060408385031215611ebc57611ebb611842565b5b6000611eca85828601611a98565b9250506020611edb85828601611a98565b9150509250929050565b7f4e487b7100000000000000000000000000000000000000000000000000000000600052602260045260246000fd5b60006002820490506001821680611f2c57607f821691505b60208210811415611f4057611f3f611ee5565b5b50919050565b7f4552433732313a20617070726f76616c20746f2063757272656e74206f776e6560008201527f7200000000000000000000000000000000000000000000000000000000000000602082015250565b6000611fa2602183611912565b9150611fad82611f46565b604082019050919050565b60006020820190508181036000830152611fd181611f95565b9050919050565b7f4552433732313a20617070726f76652063616c6c6572206973206e6f7420746f60008201527f6b656e206f776e6572206e6f7220617070726f76656420666f7220616c6c0000602082015250565b6000612034603e83611912565b915061203f82611fd8565b604082019050919050565b6000602082019050818103600083015261206381612027565b9050919050565b7f4552433732313a2063616c6c6572206973206e6f7420746f6b656e206f776e6560008201527f72206e6f7220617070726f766564000000000000000000000000000000000000602082015250565b60006120c6602e83611912565b91506120d18261206a565b604082019050919050565b600060208201905081810360008301526120f5816120b9565b9050919050565b7f4552433732313a20696e76616c696420746f6b656e2049440000000000000000600082015250565b6000612132601883611912565b915061213d826120fc565b602082019050919050565b6000602082019050818103600083015261216181612125565b9050919050565b7f4552433732313a2061646472657373207a65726f206973206e6f74206120766160008201527f6c6964206f776e65720000000000000000000000000000000000000000000000602082015250565b60006121c4602983611912565b91506121cf82612168565b604082019050919050565b600060208201905081810360008301526121f3816121b7565b9050919050565b600081905092915050565b600061221082611907565b61221a81856121fa565b935061222a818560208601611923565b80840191505092915050565b60006122428285612205565b915061224e8284612205565b91508190509392505050565b7f4552433732313a207472616e736665722066726f6d20696e636f72726563742060008201527f6f776e6572000000000000000000000000000000000000000000000000000000602082015250565b60006122b6602583611912565b91506122c18261225a565b604082019050919050565b600060208201905081810360008301526122e5816122a9565b9050919050565b7f4552433732313a207472616e7366657220746f20746865207a65726f2061646460008201527f7265737300000000000000000000000000000000000000000000000000000000602082015250565b6000612348602483611912565b9150612353826122ec565b604082019050919050565b600060208201905081810360008301526123778161233b565b9050919050565b7f4e487b7100000000000000000000000000000000000000000000000000000000600052601160045260246000fd5b60006123b8826119c2565b91506123c3836119c2565b9250828210156123d6576123d561237e565b5b828203905092915050565b60006123ec826119c2565b91506123f7836119c2565b9250827fffffffffffffffffffffffffffffffffffffffffffffffffffffffffffffffff0382111561242c5761242b61237e565b5b828201905092915050565b7f4552433732313a20617070726f766520746f2063616c6c657200000000000000600082015250565b600061246d601983611912565b915061247882612437565b602082019050919050565b6000602082019050818103600083015261249c81612460565b9050919050565b7f4552433732313a207472616e7366657220746f206e6f6e20455243373231526560008201527f63656976657220696d706c656d656e7465720000000000000000000000000000602082015250565b60006124ff603283611912565b915061250a826124a3565b604082019050919050565b6000602082019050818103600083015261252e816124f2565b9050919050565b7f4552433732313a206d696e7420746f20746865207a65726f2061646472657373600082015250565b600061256b602083611912565b915061257682612535565b602082019050919050565b6000602082019050818103600083015261259a8161255e565b9050919050565b7f4552433732313a20746f6b656e20616c7265616479206d696e74656400000000600082015250565b60006125d7601c83611912565b91506125e2826125a1565b602082019050919050565b60006020820190508181036000830152612606816125ca565b9050919050565b7f45524337323155524953746f726167653a2055524920736574206f66206e6f6e60008201527f6578697374656e7420746f6b656e000000000000000000000000000000000000602082015250565b6000612669602e83611912565b91506126748261260d565b604082019050919050565b600060208201905081810360008301526126988161265c565b9050919050565b600081519050919050565b600082825260208201905092915050565b60006126c68261269f565b6126d081856126aa565b93506126e0818560208601611923565b6126e981611956565b840191505092915050565b60006080820190506127096000830187611a57565b6127166020830186611a57565b6127236040830185611b6d565b818103606083015261273581846126bb565b905095945050505050565b60008151905061274f81611878565b92915050565b60006020828403121561276b5761276a611842565b5b600061277984828501612740565b91505092915050565b600061278d826119c2565b91507fffffffffffffffffffffffffffffffffffffffffffffffffffffffffffffffff8214156127c0576127bf61237e565b5b600182019050919050565b7f4e487b7100000000000000000000000000000000000000000000000000000000600052601260045260246000fd5b6000612805826119c2565b9150612810836119c2565b9250826128205761281f6127cb565b5b828204905092915050565b6000612836826119c2565b9150612841836119c2565b925082612851576128506127cb565b5b828206905092915050565b7f4e487b7100000000000000000000000000000000000000000000000000000000600052603260045260246000fdfea2646970667358221220718c831dd6d3afe9fb4b5dd93006566a17034ea466b1d7da7a0b63229ba9a49e64736f6c63430008090033",
  "immutableReferences": {},
  "source": "// SPDX-License-Identifier: MIT\npragma solidity >=0.4.22 <0.9.0;\n\nimport \"@openzeppelin/contracts/utils/Counters.sol\";\nimport \"@openzeppelin/contracts/token/ERC721/extensions/ERC721URIStorage.sol\";\nimport \"@openzeppelin/contracts/token/ERC721/extensions/ERC721Enumerable.sol\";\nimport \"@openzeppelin/contracts/token/ERC721/ERC721.sol\";\n\ncontract NFT is ERC721URIStorage {\n    using Counters for Counters.Counter;\n    Counters.Counter private nftTokenId;\n    address contractAddress;\n\n    constructor(address marketplaceAddress) ERC721(\"Unreal Kingdom\", \"UnKi\") {\n        contractAddress = marketplaceAddress;\n    }\n\n    function createNFtToken(string memory nftTokenURl) public returns (uint256) {\n        nftTokenId.increment();\n        uint256 id = nftTokenId.current();\n        _mint(msg.sender, id);\n        _setTokenURI(id, nftTokenURl);\n        setApprovalForAll(contractAddress, true);\n        return id;\n    }\n}\n",
  "sourcePath": "/Volumes/Work/Work/CAYC/UnrealNFtMarketplace/contracts/NFT.sol",
  "compiler": {
    "name": "solc",
    "version": "0.8.9+commit.e5eed63a.Emscripten.clang"
  },
  "schemaVersion": "3.4.3",
  "updatedAt": "2022-11-02T03:11:43.282Z",
  "networkType": "ethereum",
  "devdoc": {
    "kind": "dev",
    "methods": {
      "approve(address,uint256)": {
        "details": "See {IERC721-approve}."
      },
      "balanceOf(address)": {
        "details": "See {IERC721-balanceOf}."
      },
      "getApproved(uint256)": {
        "details": "See {IERC721-getApproved}."
      },
      "isApprovedForAll(address,address)": {
        "details": "See {IERC721-isApprovedForAll}."
      },
      "name()": {
        "details": "See {IERC721Metadata-name}."
      },
      "ownerOf(uint256)": {
        "details": "See {IERC721-ownerOf}."
      },
      "safeTransferFrom(address,address,uint256)": {
        "details": "See {IERC721-safeTransferFrom}."
      },
      "safeTransferFrom(address,address,uint256,bytes)": {
        "details": "See {IERC721-safeTransferFrom}."
      },
      "setApprovalForAll(address,bool)": {
        "details": "See {IERC721-setApprovalForAll}."
      },
      "supportsInterface(bytes4)": {
        "details": "See {IERC165-supportsInterface}."
      },
      "symbol()": {
        "details": "See {IERC721Metadata-symbol}."
      },
      "tokenURI(uint256)": {
        "details": "See {IERC721Metadata-tokenURI}."
      },
      "transferFrom(address,address,uint256)": {
        "details": "See {IERC721-transferFrom}."
      }
    },
    "version": 1
  },
  "userdoc": {
    "kind": "user",
    "methods": {},
    "version": 1
  }
}