{
  "contractName": "NFTMarketPlace",
  "abi": [
    {
      "inputs": [],
      "stateMutability": "nonpayable",
      "type": "constructor"
    },
    {
      "anonymous": false,
      "inputs": [
        {
          "indexed": true,
          "internalType": "address",
          "name": "nftContract",
          "type": "address"
        },
        {
          "indexed": true,
          "internalType": "uint256",
          "name": "id",
          "type": "uint256"
        },
        {
          "indexed": false,
          "internalType": "uint256",
          "name": "tokenId",
          "type": "uint256"
        },
        {
          "indexed": false,
          "internalType": "address",
          "name": "owner",
          "type": "address"
        },
        {
          "indexed": false,
          "internalType": "address",
          "name": "seller",
          "type": "address"
        },
        {
          "indexed": false,
          "internalType": "uint256",
          "name": "price",
          "type": "uint256"
        },
        {
          "indexed": false,
          "internalType": "bool",
          "name": "sold",
          "type": "bool"
        }
      ],
      "name": "NftMerketItemCreated",
      "type": "event"
    },
    {
      "inputs": [],
      "name": "gettheMarketFees",
      "outputs": [
        {
          "internalType": "uint256",
          "name": "",
          "type": "uint256"
        }
      ],
      "stateMutability": "view",
      "type": "function",
      "constant": true
    },
    {
      "inputs": [
        {
          "internalType": "address",
          "name": "nftContract",
          "type": "address"
        },
        {
          "internalType": "uint256",
          "name": "tokenId",
          "type": "uint256"
        },
        {
          "internalType": "uint256",
          "name": "price",
          "type": "uint256"
        }
      ],
      "name": "createItemForSale",
      "outputs": [],
      "stateMutability": "payable",
      "type": "function",
      "payable": true
    },
    {
      "inputs": [
        {
          "internalType": "address",
          "name": "nftContract",
          "type": "address"
        },
        {
          "internalType": "uint256",
          "name": "nftItemId",
          "type": "uint256"
        }
      ],
      "name": "createMarketForSale",
      "outputs": [],
      "stateMutability": "payable",
      "type": "function",
      "payable": true
    },
    {
      "inputs": [],
      "name": "getMyItemCreated",
      "outputs": [
        {
          "components": [
            {
              "internalType": "address",
              "name": "nftContract",
              "type": "address"
            },
            {
              "internalType": "uint256",
              "name": "id",
              "type": "uint256"
            },
            {
              "internalType": "uint256",
              "name": "tokenId",
              "type": "uint256"
            },
            {
              "internalType": "address payable",
              "name": "owner",
              "type": "address"
            },
            {
              "internalType": "address payable",
              "name": "seller",
              "type": "address"
            },
            {
              "internalType": "uint256",
              "name": "price",
              "type": "uint256"
            },
            {
              "internalType": "bool",
              "name": "sold",
              "type": "bool"
            }
          ],
          "internalType": "struct NFTMarketPlace.NftMerketItem[]",
          "name": "",
          "type": "tuple[]"
        }
      ],
      "stateMutability": "view",
      "type": "function",
      "constant": true
    },
    {
      "inputs": [],
      "name": "getMyNFTPurchased",
      "outputs": [
        {
          "components": [
            {
              "internalType": "address",
              "name": "nftContract",
              "type": "address"
            },
            {
              "internalType": "uint256",
              "name": "id",
              "type": "uint256"
            },
            {
              "internalType": "uint256",
              "name": "tokenId",
              "type": "uint256"
            },
            {
              "internalType": "address payable",
              "name": "owner",
              "type": "address"
            },
            {
              "internalType": "address payable",
              "name": "seller",
              "type": "address"
            },
            {
              "internalType": "uint256",
              "name": "price",
              "type": "uint256"
            },
            {
              "internalType": "bool",
              "name": "sold",
              "type": "bool"
            }
          ],
          "internalType": "struct NFTMarketPlace.NftMerketItem[]",
          "name": "",
          "type": "tuple[]"
        }
      ],
      "stateMutability": "view",
      "type": "function",
      "constant": true
    },
    {
      "inputs": [],
      "name": "getAllUnsoldItems",
      "outputs": [
        {
          "components": [
            {
              "internalType": "address",
              "name": "nftContract",
              "type": "address"
            },
            {
              "internalType": "uint256",
              "name": "id",
              "type": "uint256"
            },
            {
              "internalType": "uint256",
              "name": "tokenId",
              "type": "uint256"
            },
            {
              "internalType": "address payable",
              "name": "owner",
              "type": "address"
            },
            {
              "internalType": "address payable",
              "name": "seller",
              "type": "address"
            },
            {
              "internalType": "uint256",
              "name": "price",
              "type": "uint256"
            },
            {
              "internalType": "bool",
              "name": "sold",
              "type": "bool"
            }
          ],
          "internalType": "struct NFTMarketPlace.NftMerketItem[]",
          "name": "",
          "type": "tuple[]"
        }
      ],
      "stateMutability": "view",
      "type": "function",
      "constant": true
    }
  ],
  "bytecode": "0x6080604052662386f26fc1000060015534801561001b57600080fd5b50600160008190555033600260006101000a81548173ffffffffffffffffffffffffffffffffffffffff021916908373ffffffffffffffffffffffffffffffffffffffff16021790555061199d806100746000396000f3fe6080604052600436106100555760003560e01c806325135cbf1461005a578063446269e61461008557806357e9b6cc146100b05780639e31e655146100cc578063bca52442146100f7578063c7a5bc4e14610122575b600080fd5b34801561006657600080fd5b5061006f61013e565b60405161007c91906113f6565b60405180910390f35b34801561009157600080fd5b5061009a610408565b6040516100a791906113f6565b60405180910390f35b6100ca60048036038101906100c59190611475565b610755565b005b3480156100d857600080fd5b506100e1610a0e565b6040516100ee91906113f6565b60405180910390f35b34801561010357600080fd5b5061010c610d5c565b60405161011991906114c4565b60405180910390f35b61013c600480360381019061013791906114df565b610d66565b005b6060600061014c600361117e565b9050600061015a600461117e565b610164600361117e565b61016e9190611561565b905060008060008367ffffffffffffffff81111561018f5761018e611595565b5b6040519080825280602002602001820160405280156101c857816020015b6101b56111a2565b8152602001906001900390816101ad5790505b50905060005b858110156103fc57600073ffffffffffffffffffffffffffffffffffffffff16600560006001846101ff91906115c4565b815260200190815260200160002060030160009054906101000a900473ffffffffffffffffffffffffffffffffffffffff1673ffffffffffffffffffffffffffffffffffffffff1614156103e95760018161025a91906115c4565b92506000600560008581526020019081526020016000206040518060e00160405290816000820160009054906101000a900473ffffffffffffffffffffffffffffffffffffffff1673ffffffffffffffffffffffffffffffffffffffff1673ffffffffffffffffffffffffffffffffffffffff16815260200160018201548152602001600282015481526020016003820160009054906101000a900473ffffffffffffffffffffffffffffffffffffffff1673ffffffffffffffffffffffffffffffffffffffff1673ffffffffffffffffffffffffffffffffffffffff1681526020016004820160009054906101000a900473ffffffffffffffffffffffffffffffffffffffff1673ffffffffffffffffffffffffffffffffffffffff1673ffffffffffffffffffffffffffffffffffffffff168152602001600582015481526020016006820160009054906101000a900460ff1615151515815250509050808386815181106103cd576103cc61161a565b5b60200260200101819052506001856103e591906115c4565b9450505b80806103f490611649565b9150506101ce565b50809550505050505090565b60606000610416600361117e565b90506000806000805b848110156104c0573373ffffffffffffffffffffffffffffffffffffffff166005600060018461044f91906115c4565b815260200190815260200160002060030160009054906101000a900473ffffffffffffffffffffffffffffffffffffffff1673ffffffffffffffffffffffffffffffffffffffff1614156104ad576001846104aa91906115c4565b93505b80806104b890611649565b91505061041f565b5060008367ffffffffffffffff8111156104dd576104dc611595565b5b60405190808252806020026020018201604052801561051657816020015b6105036111a2565b8152602001906001900390816104fb5790505b50905060005b85811015610749573373ffffffffffffffffffffffffffffffffffffffff166005600060018461054c91906115c4565b815260200190815260200160002060030160009054906101000a900473ffffffffffffffffffffffffffffffffffffffff1673ffffffffffffffffffffffffffffffffffffffff161415610736576001816105a791906115c4565b92506000600560008581526020019081526020016000206040518060e00160405290816000820160009054906101000a900473ffffffffffffffffffffffffffffffffffffffff1673ffffffffffffffffffffffffffffffffffffffff1673ffffffffffffffffffffffffffffffffffffffff16815260200160018201548152602001600282015481526020016003820160009054906101000a900473ffffffffffffffffffffffffffffffffffffffff1673ffffffffffffffffffffffffffffffffffffffff1673ffffffffffffffffffffffffffffffffffffffff1681526020016004820160009054906101000a900473ffffffffffffffffffffffffffffffffffffffff1673ffffffffffffffffffffffffffffffffffffffff1673ffffffffffffffffffffffffffffffffffffffff168152602001600582015481526020016006820160009054906101000a900460ff16151515158152505090508083868151811061071a5761071961161a565b5b602002602001018190525060018561073291906115c4565b9450505b808061074190611649565b91505061051c565b50809550505050505090565b6002600054141561079b576040517f08c379a0000000000000000000000000000000000000000000000000000000008152600401610792906116ef565b60405180910390fd5b600260008190555060006005600083815260200190815260200160002060050154905060006005600084815260200190815260200160002060020154905081341461081b576040517f08c379a00000000000000000000000000000000000000000000000000000000081526004016108129061175b565b60405180910390fd5b6005600084815260200190815260200160002060040160009054906101000a900473ffffffffffffffffffffffffffffffffffffffff1673ffffffffffffffffffffffffffffffffffffffff166108fc349081150290604051600060405180830381858888f19350505050158015610897573d6000803e3d6000fd5b508373ffffffffffffffffffffffffffffffffffffffff166323b872dd3033846040518463ffffffff1660e01b81526004016108d59392919061178a565b600060405180830381600087803b1580156108ef57600080fd5b505af1158015610903573d6000803e3d6000fd5b50505050336005600085815260200190815260200160002060030160006101000a81548173ffffffffffffffffffffffffffffffffffffffff021916908373ffffffffffffffffffffffffffffffffffffffff16021790555060016005600085815260200190815260200160002060060160006101000a81548160ff021916908315150217905550610995600461118c565b600260009054906101000a900473ffffffffffffffffffffffffffffffffffffffff1673ffffffffffffffffffffffffffffffffffffffff166108fc6001549081150290604051600060405180830381858888f193505050501580156109ff573d6000803e3d6000fd5b50505060016000819055505050565b60606000610a1c600361117e565b905060008060005b83811015610ac5573373ffffffffffffffffffffffffffffffffffffffff1660056000600184610a5491906115c4565b815260200190815260200160002060040160009054906101000a900473ffffffffffffffffffffffffffffffffffffffff1673ffffffffffffffffffffffffffffffffffffffff161415610ab257600183610aaf91906115c4565b92505b8080610abd90611649565b915050610a24565b5060008267ffffffffffffffff811115610ae257610ae1611595565b5b604051908082528060200260200182016040528015610b1b57816020015b610b086111a2565b815260200190600190039081610b005790505b50905060005b84811015610d51573373ffffffffffffffffffffffffffffffffffffffff1660056000600184610b5191906115c4565b815260200190815260200160002060040160009054906101000a900473ffffffffffffffffffffffffffffffffffffffff1673ffffffffffffffffffffffffffffffffffffffff161415610d3e576000600182610bae91906115c4565b90506000600560008381526020019081526020016000206040518060e00160405290816000820160009054906101000a900473ffffffffffffffffffffffffffffffffffffffff1673ffffffffffffffffffffffffffffffffffffffff1673ffffffffffffffffffffffffffffffffffffffff16815260200160018201548152602001600282015481526020016003820160009054906101000a900473ffffffffffffffffffffffffffffffffffffffff1673ffffffffffffffffffffffffffffffffffffffff1673ffffffffffffffffffffffffffffffffffffffff1681526020016004820160009054906101000a900473ffffffffffffffffffffffffffffffffffffffff1673ffffffffffffffffffffffffffffffffffffffff1673ffffffffffffffffffffffffffffffffffffffff168152602001600582015481526020016006820160009054906101000a900460ff161515151581525050905080848681518110610d2157610d2061161a565b5b6020026020010181905250600185610d3991906115c4565b945050505b8080610d4990611649565b915050610b21565b508094505050505090565b6000600154905090565b60026000541415610dac576040517f08c379a0000000000000000000000000000000000000000000000000000000008152600401610da3906116ef565b60405180910390fd5b600260008190555060008111610df7576040517f08c379a0000000000000000000000000000000000000000000000000000000008152600401610dee9061175b565b60405180910390fd5b60008211610e3a576040517f08c379a0000000000000000000000000000000000000000000000000000000008152600401610e319061180d565b60405180910390fd5b6001543414610e7e576040517f08c379a0000000000000000000000000000000000000000000000000000000008152600401610e7590611879565b60405180910390fd5b600073ffffffffffffffffffffffffffffffffffffffff168373ffffffffffffffffffffffffffffffffffffffff161415610eee576040517f08c379a0000000000000000000000000000000000000000000000000000000008152600401610ee5906118e5565b60405180910390fd5b610ef8600361118c565b6000610f04600361117e565b90506040518060e001604052808573ffffffffffffffffffffffffffffffffffffffff168152602001828152602001848152602001600073ffffffffffffffffffffffffffffffffffffffff1681526020013373ffffffffffffffffffffffffffffffffffffffff168152602001838152602001600015158152506005600083815260200190815260200160002060008201518160000160006101000a81548173ffffffffffffffffffffffffffffffffffffffff021916908373ffffffffffffffffffffffffffffffffffffffff160217905550602082015181600101556040820151816002015560608201518160030160006101000a81548173ffffffffffffffffffffffffffffffffffffffff021916908373ffffffffffffffffffffffffffffffffffffffff16021790555060808201518160040160006101000a81548173ffffffffffffffffffffffffffffffffffffffff021916908373ffffffffffffffffffffffffffffffffffffffff16021790555060a0820151816005015560c08201518160060160006101000a81548160ff0219169083151502179055509050508373ffffffffffffffffffffffffffffffffffffffff166323b872dd3330866040518463ffffffff1660e01b81526004016110e59392919061178a565b600060405180830381600087803b1580156110ff57600080fd5b505af1158015611113573d6000803e3d6000fd5b50505050808473ffffffffffffffffffffffffffffffffffffffff167fc0949b7bee1a9850605ae4ddce98bc8465518f7638ede9269456ccbb5e0bd81385600033876000604051611168959493929190611914565b60405180910390a3506001600081905550505050565b600081600001549050919050565b6001816000016000828254019250508190555050565b6040518060e00160405280600073ffffffffffffffffffffffffffffffffffffffff1681526020016000815260200160008152602001600073ffffffffffffffffffffffffffffffffffffffff168152602001600073ffffffffffffffffffffffffffffffffffffffff168152602001600081526020016000151581525090565b600081519050919050565b600082825260208201905092915050565b6000819050602082019050919050565b600073ffffffffffffffffffffffffffffffffffffffff82169050919050565b600061127a8261124f565b9050919050565b61128a8161126f565b82525050565b6000819050919050565b6112a381611290565b82525050565b60006112b48261124f565b9050919050565b6112c4816112a9565b82525050565b60008115159050919050565b6112df816112ca565b82525050565b60e0820160008201516112fb6000850182611281565b50602082015161130e602085018261129a565b506040820151611321604085018261129a565b50606082015161133460608501826112bb565b50608082015161134760808501826112bb565b5060a082015161135a60a085018261129a565b5060c082015161136d60c08501826112d6565b50505050565b600061137f83836112e5565b60e08301905092915050565b6000602082019050919050565b60006113a382611223565b6113ad818561122e565b93506113b88361123f565b8060005b838110156113e95781516113d08882611373565b97506113db8361138b565b9250506001810190506113bc565b5085935050505092915050565b600060208201905081810360008301526114108184611398565b905092915050565b600080fd5b6114268161126f565b811461143157600080fd5b50565b6000813590506114438161141d565b92915050565b61145281611290565b811461145d57600080fd5b50565b60008135905061146f81611449565b92915050565b6000806040838503121561148c5761148b611418565b5b600061149a85828601611434565b92505060206114ab85828601611460565b9150509250929050565b6114be81611290565b82525050565b60006020820190506114d960008301846114b5565b92915050565b6000806000606084860312156114f8576114f7611418565b5b600061150686828701611434565b935050602061151786828701611460565b925050604061152886828701611460565b9150509250925092565b7f4e487b7100000000000000000000000000000000000000000000000000000000600052601160045260246000fd5b600061156c82611290565b915061157783611290565b92508282101561158a57611589611532565b5b828203905092915050565b7f4e487b7100000000000000000000000000000000000000000000000000000000600052604160045260246000fd5b60006115cf82611290565b91506115da83611290565b9250827fffffffffffffffffffffffffffffffffffffffffffffffffffffffffffffffff0382111561160f5761160e611532565b5b828201905092915050565b7f4e487b7100000000000000000000000000000000000000000000000000000000600052603260045260246000fd5b600061165482611290565b91507fffffffffffffffffffffffffffffffffffffffffffffffffffffffffffffffff82141561168757611686611532565b5b600182019050919050565b600082825260208201905092915050565b7f5265656e7472616e637947756172643a207265656e7472616e742063616c6c00600082015250565b60006116d9601f83611692565b91506116e4826116a3565b602082019050919050565b60006020820190508181036000830152611708816116cc565b9050919050565b7f7072696365000000000000000000000000000000000000000000000000000000600082015250565b6000611745600583611692565b91506117508261170f565b602082019050919050565b6000602082019050818103600083015261177481611738565b9050919050565b6117848161126f565b82525050565b600060608201905061179f600083018661177b565b6117ac602083018561177b565b6117b960408301846114b5565b949350505050565b7f746f6b656e204964000000000000000000000000000000000000000000000000600082015250565b60006117f7600883611692565b9150611802826117c1565b602082019050919050565b60006020820190508181036000830152611826816117ea565b9050919050565b7f6d61726b65746665650000000000000000000000000000000000000000000000600082015250565b6000611863600983611692565b915061186e8261182d565b602082019050919050565b6000602082019050818103600083015261189281611856565b9050919050565b7f6164647265737300000000000000000000000000000000000000000000000000600082015250565b60006118cf600783611692565b91506118da82611899565b602082019050919050565b600060208201905081810360008301526118fe816118c2565b9050919050565b61190e816112ca565b82525050565b600060a08201905061192960008301886114b5565b611936602083018761177b565b611943604083018661177b565b61195060608301856114b5565b61195d6080830184611905565b969550505050505056fea2646970667358221220e83623199f286e0b93184db9129bb8dbfc2c29b96a152845ba2ee480273666eb64736f6c63430008090033",
  "immutableReferences": {},
  "source": "// SPDX-License-Identifier: MIT\npragma solidity >=0.4.22 <0.9.0;\nimport \"@openzeppelin/contracts/utils/Counters.sol\";\nimport \"@openzeppelin/contracts/token/ERC721/ERC721.sol\";\nimport \"@openzeppelin/contracts/security/ReentrancyGuard.sol\";\n\ncontract NFTMarketPlace is ReentrancyGuard {\n    uint256 marketFees = 0.010 ether;\n    address payable owner;\n    using Counters for Counters.Counter;\n    Counters.Counter private itemId;\n    Counters.Counter private itemsSold;\n\n     constructor(){\n         owner = payable(msg.sender);\n     }\n\n    struct NftMerketItem{\n        address nftContract;\n        uint256 id;\n        uint256 tokenId;\n        address payable owner;\n        address  payable seller;\n        uint256 price;\n        bool sold;\n    }\n\n    event NftMerketItemCreated(\n        address  indexed nftContract,\n        uint256 indexed id,\n        uint256 tokenId,\n        address  owner,\n        address  seller,\n        uint256 price,\n        bool sold\n        );\n   \n    function gettheMarketFees() public view returns(uint256){\n        return marketFees;\n    }\n    mapping(uint256=>NftMerketItem) private idForMarketItem;\n\n    function createItemForSale(address nftContract,uint256 tokenId,uint256 price)public payable nonReentrant {\n        require(price >0,\"price\");\n        require(tokenId >0,\"token Id\");\n        require(msg.value == marketFees,\"marketfee\");\n        require(nftContract != address(0),\"address\");\n        itemId.increment();\n        uint256 id = itemId.current();\n\n        idForMarketItem[id]= NftMerketItem(\n            nftContract,\n            id,\n            tokenId,\n            payable (address (0)),\n            payable(msg.sender),\n            price,\n            false\n        );\n        IERC721(nftContract).transferFrom(msg.sender, address(this), tokenId);\n        emit NftMerketItemCreated(nftContract, id, tokenId, address(0), msg.sender, price, false);\n    }\n\n    function createMarketForSale(address nftContract,uint256 nftItemId) public payable nonReentrant {\n        uint256 price = idForMarketItem[nftItemId].price;\n        uint256 tokenId = idForMarketItem[nftItemId].tokenId;\n        require(msg.value == price,\"price\");\n        idForMarketItem[nftItemId].seller.transfer(msg.value);\n        IERC721(nftContract).transferFrom(address(this), msg.sender, tokenId); //buy\n        idForMarketItem[nftItemId].owner = payable(msg.sender);\n        idForMarketItem[nftItemId].sold =  true;\n        itemsSold.increment();\n        payable(owner).transfer(marketFees);\n    }\n\n    function getMyItemCreated() public view returns(NftMerketItem[] memory){\n        uint256 totalItemCount = itemId.current(); \n        uint256 myItemCount;\n        uint256 myCurrentIndex;\n\n        for(uint256 i;i<totalItemCount;i++){\n            if(idForMarketItem[i+1].seller == msg.sender){\n                myItemCount+=1;\n            }\n        }\n        NftMerketItem [] memory nftItems = new NftMerketItem[](myItemCount); \n        for(uint256 i;i<totalItemCount;i++){\n            if(idForMarketItem[i+1].seller==msg.sender){\n                uint256 currentId = i+1;\n                NftMerketItem memory currentItem = idForMarketItem[currentId];\n                nftItems[myCurrentIndex] = currentItem;\n                myCurrentIndex +=1;\n            }\n        }\n        return nftItems;\n    }\n\n    //Create My purchased Nft Item\n    function getMyNFTPurchased() public view returns(NftMerketItem[] memory){\n        uint256 totalItemCount = itemId.current(); \n        uint256 myItemCount;\n        uint256 myCurrentIndex;\n        uint256 currentId;\n        for(uint256 i;i<totalItemCount;i++){\n            if(idForMarketItem[i + 1 ].owner == msg.sender){\n                myItemCount+=1;\n            }\n        }\n        NftMerketItem [] memory nftItems = new NftMerketItem[](myItemCount); \n        for(uint256 i = 0;i<totalItemCount;i++){\n            if(idForMarketItem[i+1].owner== msg.sender){      \n                currentId = i+1;\n                NftMerketItem memory  currentItem = idForMarketItem[currentId];\n                nftItems[myCurrentIndex] = currentItem;\n                myCurrentIndex +=1;\n            }\n        }\n        return nftItems;\n    }\n\n    //Fetch  all unsold nft items\n    function getAllUnsoldItems()public view returns (NftMerketItem[] memory){\n        uint256 totalItemCount = itemId.current(); \n        uint256 myItemCount= itemId.current() - itemsSold.current();\n        uint256 myCurrentIndex;\n        uint256 currentId;\n        NftMerketItem [] memory nftItems = new NftMerketItem[](myItemCount); //list[3]\n\n        for(uint256 i;i<totalItemCount;i++){\n            if(idForMarketItem[i+1].owner== address(0)){      //[1,2,3,4,5]\n                currentId = i+1;\n                NftMerketItem memory  currentItem = idForMarketItem[currentId];\n                nftItems[myCurrentIndex] = currentItem;\n                myCurrentIndex +=1;        \n            }\n        }\n        return nftItems;\n    }\n}",
  "sourcePath": "/Volumes/Work/Work/CAYC/UnrealNFtMarketplace/contracts/NFTMarketPlace.sol",
  "compiler": {
    "name": "solc",
    "version": "0.8.9+commit.e5eed63a.Emscripten.clang"
  },
  "schemaVersion": "3.4.3",
  "updatedAt": "2022-10-27T02:09:07.033Z",
  "networkType": "ethereum",
  "devdoc": {
    "kind": "dev",
    "methods": {},
    "version": 1
  },
  "userdoc": {
    "kind": "user",
    "methods": {},
    "version": 1
  }
}