{
  "contractName": "NFTMarketPlace",
  "abi": [
    {
      "anonymous": false,
      "inputs": [
        {
          "indexed": true,
          "internalType": "address",
          "name": "nftContract",
          "type": "address"
        },
        {
          "indexed": true,
          "internalType": "uint256",
          "name": "id",
          "type": "uint256"
        },
        {
          "indexed": false,
          "internalType": "uint256",
          "name": "tokenId",
          "type": "uint256"
        },
        {
          "indexed": false,
          "internalType": "address",
          "name": "owner",
          "type": "address"
        },
        {
          "indexed": false,
          "internalType": "address",
          "name": "seller",
          "type": "address"
        },
        {
          "indexed": false,
          "internalType": "uint256",
          "name": "price",
          "type": "uint256"
        },
        {
          "indexed": false,
          "internalType": "bool",
          "name": "sold",
          "type": "bool"
        }
      ],
      "name": "NftMerketItemCreated",
      "type": "event"
    },
    {
      "anonymous": false,
      "inputs": [
        {
          "indexed": true,
          "internalType": "address",
          "name": "previousOwner",
          "type": "address"
        },
        {
          "indexed": true,
          "internalType": "address",
          "name": "newOwner",
          "type": "address"
        }
      ],
      "name": "OwnershipTransferred",
      "type": "event"
    },
    {
      "inputs": [],
      "name": "owner",
      "outputs": [
        {
          "internalType": "address",
          "name": "",
          "type": "address"
        }
      ],
      "stateMutability": "view",
      "type": "function",
      "constant": true
    },
    {
      "inputs": [],
      "name": "renounceOwnership",
      "outputs": [],
      "stateMutability": "nonpayable",
      "type": "function"
    },
    {
      "inputs": [
        {
          "internalType": "address",
          "name": "newOwner",
          "type": "address"
        }
      ],
      "name": "transferOwnership",
      "outputs": [],
      "stateMutability": "nonpayable",
      "type": "function"
    },
    {
      "inputs": [
        {
          "internalType": "address",
          "name": "nftContract",
          "type": "address"
        },
        {
          "internalType": "uint256",
          "name": "tokenId",
          "type": "uint256"
        },
        {
          "internalType": "uint256",
          "name": "price",
          "type": "uint256"
        }
      ],
      "name": "createItemForSale",
      "outputs": [],
      "stateMutability": "payable",
      "type": "function",
      "payable": true
    },
    {
      "inputs": [
        {
          "internalType": "address",
          "name": "nftContract",
          "type": "address"
        },
        {
          "internalType": "uint256",
          "name": "nftItemId",
          "type": "uint256"
        }
      ],
      "name": "createMarketForSale",
      "outputs": [],
      "stateMutability": "payable",
      "type": "function",
      "payable": true
    },
    {
      "inputs": [],
      "name": "getMyItemCreated",
      "outputs": [
        {
          "components": [
            {
              "internalType": "address",
              "name": "nftContract",
              "type": "address"
            },
            {
              "internalType": "uint256",
              "name": "id",
              "type": "uint256"
            },
            {
              "internalType": "uint256",
              "name": "tokenId",
              "type": "uint256"
            },
            {
              "internalType": "address payable",
              "name": "owner",
              "type": "address"
            },
            {
              "internalType": "address payable",
              "name": "seller",
              "type": "address"
            },
            {
              "internalType": "uint256",
              "name": "price",
              "type": "uint256"
            },
            {
              "internalType": "bool",
              "name": "sold",
              "type": "bool"
            }
          ],
          "internalType": "struct NFTMarketPlace.NftMerketItem[]",
          "name": "",
          "type": "tuple[]"
        }
      ],
      "stateMutability": "view",
      "type": "function",
      "constant": true
    },
    {
      "inputs": [],
      "name": "getMyNFTPurchased",
      "outputs": [
        {
          "components": [
            {
              "internalType": "address",
              "name": "nftContract",
              "type": "address"
            },
            {
              "internalType": "uint256",
              "name": "id",
              "type": "uint256"
            },
            {
              "internalType": "uint256",
              "name": "tokenId",
              "type": "uint256"
            },
            {
              "internalType": "address payable",
              "name": "owner",
              "type": "address"
            },
            {
              "internalType": "address payable",
              "name": "seller",
              "type": "address"
            },
            {
              "internalType": "uint256",
              "name": "price",
              "type": "uint256"
            },
            {
              "internalType": "bool",
              "name": "sold",
              "type": "bool"
            }
          ],
          "internalType": "struct NFTMarketPlace.NftMerketItem[]",
          "name": "",
          "type": "tuple[]"
        }
      ],
      "stateMutability": "view",
      "type": "function",
      "constant": true
    },
    {
      "inputs": [],
      "name": "getAllUnsoldItems",
      "outputs": [
        {
          "components": [
            {
              "internalType": "address",
              "name": "nftContract",
              "type": "address"
            },
            {
              "internalType": "uint256",
              "name": "id",
              "type": "uint256"
            },
            {
              "internalType": "uint256",
              "name": "tokenId",
              "type": "uint256"
            },
            {
              "internalType": "address payable",
              "name": "owner",
              "type": "address"
            },
            {
              "internalType": "address payable",
              "name": "seller",
              "type": "address"
            },
            {
              "internalType": "uint256",
              "name": "price",
              "type": "uint256"
            },
            {
              "internalType": "bool",
              "name": "sold",
              "type": "bool"
            }
          ],
          "internalType": "struct NFTMarketPlace.NftMerketItem[]",
          "name": "",
          "type": "tuple[]"
        }
      ],
      "stateMutability": "view",
      "type": "function",
      "constant": true
    },
    {
      "inputs": [],
      "name": "withdraw",
      "outputs": [],
      "stateMutability": "nonpayable",
      "type": "function"
    },
    {
      "inputs": [],
      "name": "gettheMarketFees",
      "outputs": [
        {
          "internalType": "uint256",
          "name": "",
          "type": "uint256"
        }
      ],
      "stateMutability": "view",
      "type": "function",
      "constant": true
    }
  ],
  "bytecode": "0x6080604052662386f26fc1000060025534801561001b57600080fd5b5061003861002d61004460201b60201c565b61004c60201b60201c565b60018081905550610110565b600033905090565b60008060009054906101000a900473ffffffffffffffffffffffffffffffffffffffff169050816000806101000a81548173ffffffffffffffffffffffffffffffffffffffff021916908373ffffffffffffffffffffffffffffffffffffffff1602179055508173ffffffffffffffffffffffffffffffffffffffff168173ffffffffffffffffffffffffffffffffffffffff167f8be0079c531659141344cd1fd0a4f28419497f9722a3daafe3b4186f6b6457e060405160405180910390a35050565b6120a380620001206000396000f3fe6080604052600436106100915760003560e01c80638da5cb5b116100595780638da5cb5b146101365780639e31e65514610161578063bca524421461018c578063c7a5bc4e146101b7578063f2fde38b146101d357610091565b806325135cbf146100965780633ccfd60b146100c1578063446269e6146100d857806357e9b6cc14610103578063715018a61461011f575b600080fd5b3480156100a257600080fd5b506100ab6101fc565b6040516100b8919061182c565b60405180910390f35b3480156100cd57600080fd5b506100d66104c6565b005b3480156100e457600080fd5b506100ed610584565b6040516100fa919061182c565b60405180910390f35b61011d600480360381019061011891906118ab565b6108d1565b005b34801561012b57600080fd5b50610134610c3a565b005b34801561014257600080fd5b5061014b610c4e565b60405161015891906118fa565b60405180910390f35b34801561016d57600080fd5b50610176610c77565b604051610183919061182c565b60405180910390f35b34801561019857600080fd5b506101a1610fc5565b6040516101ae9190611924565b60405180910390f35b6101d160048036038101906101cc919061193f565b610fcf565b005b3480156101df57600080fd5b506101fa60048036038101906101f59190611992565b6113e6565b005b6060600061020a600361146a565b90506000610218600461146a565b610222600361146a565b61022c91906119ee565b905060008060008367ffffffffffffffff81111561024d5761024c611a22565b5b60405190808252806020026020018201604052801561028657816020015b6102736115d8565b81526020019060019003908161026b5790505b50905060005b858110156104ba57600073ffffffffffffffffffffffffffffffffffffffff16600560006001846102bd9190611a51565b815260200190815260200160002060030160009054906101000a900473ffffffffffffffffffffffffffffffffffffffff1673ffffffffffffffffffffffffffffffffffffffff1614156104a7576001816103189190611a51565b92506000600560008581526020019081526020016000206040518060e00160405290816000820160009054906101000a900473ffffffffffffffffffffffffffffffffffffffff1673ffffffffffffffffffffffffffffffffffffffff1673ffffffffffffffffffffffffffffffffffffffff16815260200160018201548152602001600282015481526020016003820160009054906101000a900473ffffffffffffffffffffffffffffffffffffffff1673ffffffffffffffffffffffffffffffffffffffff1673ffffffffffffffffffffffffffffffffffffffff1681526020016004820160009054906101000a900473ffffffffffffffffffffffffffffffffffffffff1673ffffffffffffffffffffffffffffffffffffffff1673ffffffffffffffffffffffffffffffffffffffff168152602001600582015481526020016006820160009054906101000a900460ff16151515158152505090508083868151811061048b5761048a611aa7565b5b60200260200101819052506001856104a39190611a51565b9450505b80806104b290611ad6565b91505061028c565b50809550505050505090565b6104ce611478565b60006104d8610c4e565b73ffffffffffffffffffffffffffffffffffffffff16476040516104fb90611b50565b60006040518083038185875af1925050503d8060008114610538576040519150601f19603f3d011682016040523d82523d6000602084013e61053d565b606091505b5050905080610581576040517f08c379a000000000000000000000000000000000000000000000000000000000815260040161057890611bc2565b60405180910390fd5b50565b60606000610592600361146a565b90506000806000805b8481101561063c573373ffffffffffffffffffffffffffffffffffffffff16600560006001846105cb9190611a51565b815260200190815260200160002060030160009054906101000a900473ffffffffffffffffffffffffffffffffffffffff1673ffffffffffffffffffffffffffffffffffffffff161415610629576001846106269190611a51565b93505b808061063490611ad6565b91505061059b565b5060008367ffffffffffffffff81111561065957610658611a22565b5b60405190808252806020026020018201604052801561069257816020015b61067f6115d8565b8152602001906001900390816106775790505b50905060005b858110156108c5573373ffffffffffffffffffffffffffffffffffffffff16600560006001846106c89190611a51565b815260200190815260200160002060030160009054906101000a900473ffffffffffffffffffffffffffffffffffffffff1673ffffffffffffffffffffffffffffffffffffffff1614156108b2576001816107239190611a51565b92506000600560008581526020019081526020016000206040518060e00160405290816000820160009054906101000a900473ffffffffffffffffffffffffffffffffffffffff1673ffffffffffffffffffffffffffffffffffffffff1673ffffffffffffffffffffffffffffffffffffffff16815260200160018201548152602001600282015481526020016003820160009054906101000a900473ffffffffffffffffffffffffffffffffffffffff1673ffffffffffffffffffffffffffffffffffffffff1673ffffffffffffffffffffffffffffffffffffffff1681526020016004820160009054906101000a900473ffffffffffffffffffffffffffffffffffffffff1673ffffffffffffffffffffffffffffffffffffffff1673ffffffffffffffffffffffffffffffffffffffff168152602001600582015481526020016006820160009054906101000a900460ff16151515158152505090508083868151811061089657610895611aa7565b5b60200260200101819052506001856108ae9190611a51565b9450505b80806108bd90611ad6565b915050610698565b50809550505050505090565b60026001541415610917576040517f08c379a000000000000000000000000000000000000000000000000000000000815260040161090e90611c2e565b60405180910390fd5b6002600181905550600060056000838152602001908152602001600020600501549050600060056000848152602001908152602001600020600201549050813414610997576040517f08c379a000000000000000000000000000000000000000000000000000000000815260040161098e90611c9a565b60405180910390fd5b60006005600085815260200190815260200160002060040160009054906101000a900473ffffffffffffffffffffffffffffffffffffffff1673ffffffffffffffffffffffffffffffffffffffff16346040516109f390611b50565b60006040518083038185875af1925050503d8060008114610a30576040519150601f19603f3d011682016040523d82523d6000602084013e610a35565b606091505b5050905080610a79576040517f08c379a0000000000000000000000000000000000000000000000000000000008152600401610a7090611d06565b60405180910390fd5b8473ffffffffffffffffffffffffffffffffffffffff166323b872dd3033856040518463ffffffff1660e01b8152600401610ab693929190611d26565b600060405180830381600087803b158015610ad057600080fd5b505af1158015610ae4573d6000803e3d6000fd5b50505050336005600086815260200190815260200160002060030160006101000a81548173ffffffffffffffffffffffffffffffffffffffff021916908373ffffffffffffffffffffffffffffffffffffffff16021790555060016005600086815260200190815260200160002060060160006101000a81548160ff021916908315150217905550610b7660046114f6565b6000610b80610c4e565b73ffffffffffffffffffffffffffffffffffffffff16600254604051610ba590611b50565b60006040518083038185875af1925050503d8060008114610be2576040519150601f19603f3d011682016040523d82523d6000602084013e610be7565b606091505b5050905080610c2b576040517f08c379a0000000000000000000000000000000000000000000000000000000008152600401610c2290611da9565b60405180910390fd5b50505050600180819055505050565b610c42611478565b610c4c600061150c565b565b60008060009054906101000a900473ffffffffffffffffffffffffffffffffffffffff16905090565b60606000610c85600361146a565b905060008060005b83811015610d2e573373ffffffffffffffffffffffffffffffffffffffff1660056000600184610cbd9190611a51565b815260200190815260200160002060040160009054906101000a900473ffffffffffffffffffffffffffffffffffffffff1673ffffffffffffffffffffffffffffffffffffffff161415610d1b57600183610d189190611a51565b92505b8080610d2690611ad6565b915050610c8d565b5060008267ffffffffffffffff811115610d4b57610d4a611a22565b5b604051908082528060200260200182016040528015610d8457816020015b610d716115d8565b815260200190600190039081610d695790505b50905060005b84811015610fba573373ffffffffffffffffffffffffffffffffffffffff1660056000600184610dba9190611a51565b815260200190815260200160002060040160009054906101000a900473ffffffffffffffffffffffffffffffffffffffff1673ffffffffffffffffffffffffffffffffffffffff161415610fa7576000600182610e179190611a51565b90506000600560008381526020019081526020016000206040518060e00160405290816000820160009054906101000a900473ffffffffffffffffffffffffffffffffffffffff1673ffffffffffffffffffffffffffffffffffffffff1673ffffffffffffffffffffffffffffffffffffffff16815260200160018201548152602001600282015481526020016003820160009054906101000a900473ffffffffffffffffffffffffffffffffffffffff1673ffffffffffffffffffffffffffffffffffffffff1673ffffffffffffffffffffffffffffffffffffffff1681526020016004820160009054906101000a900473ffffffffffffffffffffffffffffffffffffffff1673ffffffffffffffffffffffffffffffffffffffff1673ffffffffffffffffffffffffffffffffffffffff168152602001600582015481526020016006820160009054906101000a900460ff161515151581525050905080848681518110610f8a57610f89611aa7565b5b6020026020010181905250600185610fa29190611a51565b945050505b8080610fb290611ad6565b915050610d8a565b508094505050505090565b6000600254905090565b60026001541415611015576040517f08c379a000000000000000000000000000000000000000000000000000000000815260040161100c90611c2e565b60405180910390fd5b600260018190555060008111611060576040517f08c379a000000000000000000000000000000000000000000000000000000000815260040161105790611c9a565b60405180910390fd5b600082116110a3576040517f08c379a000000000000000000000000000000000000000000000000000000000815260040161109a90611e15565b60405180910390fd5b60025434146110e7576040517f08c379a00000000000000000000000000000000000000000000000000000000081526004016110de90611e81565b60405180910390fd5b600073ffffffffffffffffffffffffffffffffffffffff168373ffffffffffffffffffffffffffffffffffffffff161415611157576040517f08c379a000000000000000000000000000000000000000000000000000000000815260040161114e90611eed565b60405180910390fd5b61116160036114f6565b600061116d600361146a565b90506040518060e001604052808573ffffffffffffffffffffffffffffffffffffffff168152602001828152602001848152602001600073ffffffffffffffffffffffffffffffffffffffff1681526020013373ffffffffffffffffffffffffffffffffffffffff168152602001838152602001600015158152506005600083815260200190815260200160002060008201518160000160006101000a81548173ffffffffffffffffffffffffffffffffffffffff021916908373ffffffffffffffffffffffffffffffffffffffff160217905550602082015181600101556040820151816002015560608201518160030160006101000a81548173ffffffffffffffffffffffffffffffffffffffff021916908373ffffffffffffffffffffffffffffffffffffffff16021790555060808201518160040160006101000a81548173ffffffffffffffffffffffffffffffffffffffff021916908373ffffffffffffffffffffffffffffffffffffffff16021790555060a0820151816005015560c08201518160060160006101000a81548160ff0219169083151502179055509050508373ffffffffffffffffffffffffffffffffffffffff166323b872dd3330866040518463ffffffff1660e01b815260040161134e93929190611d26565b600060405180830381600087803b15801561136857600080fd5b505af115801561137c573d6000803e3d6000fd5b50505050808473ffffffffffffffffffffffffffffffffffffffff167fc0949b7bee1a9850605ae4ddce98bc8465518f7638ede9269456ccbb5e0bd813856000338760006040516113d1959493929190611f1c565b60405180910390a35060018081905550505050565b6113ee611478565b600073ffffffffffffffffffffffffffffffffffffffff168173ffffffffffffffffffffffffffffffffffffffff16141561145e576040517f08c379a000000000000000000000000000000000000000000000000000000000815260040161145590611fe1565b60405180910390fd5b6114678161150c565b50565b600081600001549050919050565b6114806115d0565b73ffffffffffffffffffffffffffffffffffffffff1661149e610c4e565b73ffffffffffffffffffffffffffffffffffffffff16146114f4576040517f08c379a00000000000000000000000000000000000000000000000000000000081526004016114eb9061204d565b60405180910390fd5b565b6001816000016000828254019250508190555050565b60008060009054906101000a900473ffffffffffffffffffffffffffffffffffffffff169050816000806101000a81548173ffffffffffffffffffffffffffffffffffffffff021916908373ffffffffffffffffffffffffffffffffffffffff1602179055508173ffffffffffffffffffffffffffffffffffffffff168173ffffffffffffffffffffffffffffffffffffffff167f8be0079c531659141344cd1fd0a4f28419497f9722a3daafe3b4186f6b6457e060405160405180910390a35050565b600033905090565b6040518060e00160405280600073ffffffffffffffffffffffffffffffffffffffff1681526020016000815260200160008152602001600073ffffffffffffffffffffffffffffffffffffffff168152602001600073ffffffffffffffffffffffffffffffffffffffff168152602001600081526020016000151581525090565b600081519050919050565b600082825260208201905092915050565b6000819050602082019050919050565b600073ffffffffffffffffffffffffffffffffffffffff82169050919050565b60006116b082611685565b9050919050565b6116c0816116a5565b82525050565b6000819050919050565b6116d9816116c6565b82525050565b60006116ea82611685565b9050919050565b6116fa816116df565b82525050565b60008115159050919050565b61171581611700565b82525050565b60e08201600082015161173160008501826116b7565b50602082015161174460208501826116d0565b50604082015161175760408501826116d0565b50606082015161176a60608501826116f1565b50608082015161177d60808501826116f1565b5060a082015161179060a08501826116d0565b5060c08201516117a360c085018261170c565b50505050565b60006117b5838361171b565b60e08301905092915050565b6000602082019050919050565b60006117d982611659565b6117e38185611664565b93506117ee83611675565b8060005b8381101561181f57815161180688826117a9565b9750611811836117c1565b9250506001810190506117f2565b5085935050505092915050565b6000602082019050818103600083015261184681846117ce565b905092915050565b600080fd5b61185c816116a5565b811461186757600080fd5b50565b60008135905061187981611853565b92915050565b611888816116c6565b811461189357600080fd5b50565b6000813590506118a58161187f565b92915050565b600080604083850312156118c2576118c161184e565b5b60006118d08582860161186a565b92505060206118e185828601611896565b9150509250929050565b6118f4816116a5565b82525050565b600060208201905061190f60008301846118eb565b92915050565b61191e816116c6565b82525050565b60006020820190506119396000830184611915565b92915050565b6000806000606084860312156119585761195761184e565b5b60006119668682870161186a565b935050602061197786828701611896565b925050604061198886828701611896565b9150509250925092565b6000602082840312156119a8576119a761184e565b5b60006119b68482850161186a565b91505092915050565b7f4e487b7100000000000000000000000000000000000000000000000000000000600052601160045260246000fd5b60006119f9826116c6565b9150611a04836116c6565b925082821015611a1757611a166119bf565b5b828203905092915050565b7f4e487b7100000000000000000000000000000000000000000000000000000000600052604160045260246000fd5b6000611a5c826116c6565b9150611a67836116c6565b9250827fffffffffffffffffffffffffffffffffffffffffffffffffffffffffffffffff03821115611a9c57611a9b6119bf565b5b828201905092915050565b7f4e487b7100000000000000000000000000000000000000000000000000000000600052603260045260246000fd5b6000611ae1826116c6565b91507fffffffffffffffffffffffffffffffffffffffffffffffffffffffffffffffff821415611b1457611b136119bf565b5b600182019050919050565b600081905092915050565b50565b6000611b3a600083611b1f565b9150611b4582611b2a565b600082019050919050565b6000611b5b82611b2d565b9150819050919050565b600082825260208201905092915050565b7f7769746864726177206661696c65640000000000000000000000000000000000600082015250565b6000611bac600f83611b65565b9150611bb782611b76565b602082019050919050565b60006020820190508181036000830152611bdb81611b9f565b9050919050565b7f5265656e7472616e637947756172643a207265656e7472616e742063616c6c00600082015250565b6000611c18601f83611b65565b9150611c2382611be2565b602082019050919050565b60006020820190508181036000830152611c4781611c0b565b9050919050565b7f7072696365000000000000000000000000000000000000000000000000000000600082015250565b6000611c84600583611b65565b9150611c8f82611c4e565b602082019050919050565b60006020820190508181036000830152611cb381611c77565b9050919050565b7f7472616e7366657220746f2073656c6c6572206661696c656400000000000000600082015250565b6000611cf0601983611b65565b9150611cfb82611cba565b602082019050919050565b60006020820190508181036000830152611d1f81611ce3565b9050919050565b6000606082019050611d3b60008301866118eb565b611d4860208301856118eb565b611d556040830184611915565b949350505050565b7f6d61726b657420666565207472616e73666572206661696c6564000000000000600082015250565b6000611d93601a83611b65565b9150611d9e82611d5d565b602082019050919050565b60006020820190508181036000830152611dc281611d86565b9050919050565b7f746f6b656e204964000000000000000000000000000000000000000000000000600082015250565b6000611dff600883611b65565b9150611e0a82611dc9565b602082019050919050565b60006020820190508181036000830152611e2e81611df2565b9050919050565b7f6d61726b65746665650000000000000000000000000000000000000000000000600082015250565b6000611e6b600983611b65565b9150611e7682611e35565b602082019050919050565b60006020820190508181036000830152611e9a81611e5e565b9050919050565b7f6164647265737300000000000000000000000000000000000000000000000000600082015250565b6000611ed7600783611b65565b9150611ee282611ea1565b602082019050919050565b60006020820190508181036000830152611f0681611eca565b9050919050565b611f1681611700565b82525050565b600060a082019050611f316000830188611915565b611f3e60208301876118eb565b611f4b60408301866118eb565b611f586060830185611915565b611f656080830184611f0d565b9695505050505050565b7f4f776e61626c653a206e6577206f776e657220697320746865207a65726f206160008201527f6464726573730000000000000000000000000000000000000000000000000000602082015250565b6000611fcb602683611b65565b9150611fd682611f6f565b604082019050919050565b60006020820190508181036000830152611ffa81611fbe565b9050919050565b7f4f776e61626c653a2063616c6c6572206973206e6f7420746865206f776e6572600082015250565b6000612037602083611b65565b915061204282612001565b602082019050919050565b600060208201905081810360008301526120668161202a565b905091905056fea2646970667358221220c53cfa8feaad955d4b8b5a2bda8211d4bdd2e0910f91200da7548227ca7b801564736f6c63430008090033",
  "immutableReferences": {},
  "source": "// SPDX-License-Identifier: MIT\npragma solidity >=0.4.22 <0.9.0;\nimport \"@openzeppelin/contracts/access/Ownable.sol\";\nimport \"@openzeppelin/contracts/token/ERC20/ERC20.sol\";\nimport \"@openzeppelin/contracts/utils/Counters.sol\";\nimport \"@openzeppelin/contracts/token/ERC721/ERC721.sol\";\nimport \"@openzeppelin/contracts/security/ReentrancyGuard.sol\";\n\ncontract NFTMarketPlace is Ownable, ReentrancyGuard {\n    uint256 marketFees = 0.010 ether;\n    using Counters for Counters.Counter;\n    Counters.Counter private itemId;\n    Counters.Counter private itemsSold;\n\n    struct NftMerketItem {\n        address nftContract;\n        uint256 id;\n        uint256 tokenId;\n        address payable owner;\n        address payable seller;\n        uint256 price;\n        bool sold;\n    }\n\n    event NftMerketItemCreated(\n        address indexed nftContract,\n        uint256 indexed id,\n        uint256 tokenId,\n        address owner,\n        address seller,\n        uint256 price,\n        bool sold\n    );\n\n    mapping(uint256 => NftMerketItem) private idForMarketItem;\n\n    function createItemForSale(\n        address nftContract,\n        uint256 tokenId,\n        uint256 price\n    ) external payable nonReentrant {\n        require(price > 0, \"price\");\n        require(tokenId > 0, \"token Id\");\n        require(msg.value == marketFees, \"marketfee\");\n        require(nftContract != address(0), \"address\");\n        itemId.increment();\n        uint256 id = itemId.current();\n\n        idForMarketItem[id] = NftMerketItem(\n            nftContract,\n            id,\n            tokenId,\n            payable(address(0)),\n            payable(msg.sender),\n            price,\n            false\n        );\n        IERC721(nftContract).transferFrom(msg.sender, address(this), tokenId);\n        emit NftMerketItemCreated(nftContract, id, tokenId, address(0), msg.sender, price, false);\n    }\n\n    function createMarketForSale(address nftContract, uint256 nftItemId)\n        external\n        payable\n        nonReentrant\n    {\n        uint256 price = idForMarketItem[nftItemId].price;\n        uint256 tokenId = idForMarketItem[nftItemId].tokenId;\n        require(msg.value == price, \"price\");\n        (bool success1, ) = idForMarketItem[nftItemId].seller.call{value: msg.value}(\"\");\n        require(success1, \"transfer to seller failed\");\n\n        IERC721(nftContract).transferFrom(address(this), msg.sender, tokenId);\n        idForMarketItem[nftItemId].owner = payable(msg.sender);\n        idForMarketItem[nftItemId].sold = true;\n        itemsSold.increment();\n\n        (bool success2, ) = owner().call{value: marketFees}(\"\");\n        require(success2, \"market fee transfer failed\");\n    }\n\n    function getMyItemCreated() external view returns (NftMerketItem[] memory) {\n        uint256 totalItemCount = itemId.current();\n        uint256 myItemCount;\n        uint256 myCurrentIndex;\n\n        for (uint256 i; i < totalItemCount; i++) {\n            if (idForMarketItem[i + 1].seller == msg.sender) {\n                myItemCount += 1;\n            }\n        }\n        NftMerketItem[] memory nftItems = new NftMerketItem[](myItemCount);\n        for (uint256 i; i < totalItemCount; i++) {\n            if (idForMarketItem[i + 1].seller == msg.sender) {\n                uint256 currentId = i + 1;\n                NftMerketItem memory currentItem = idForMarketItem[currentId];\n                nftItems[myCurrentIndex] = currentItem;\n                myCurrentIndex += 1;\n            }\n        }\n        return nftItems;\n    }\n\n    //Create My purchased Nft Item\n    function getMyNFTPurchased() external view returns (NftMerketItem[] memory) {\n        uint256 totalItemCount = itemId.current();\n        uint256 myItemCount;\n        uint256 myCurrentIndex;\n        uint256 currentId;\n        for (uint256 i; i < totalItemCount; i++) {\n            if (idForMarketItem[i + 1].owner == msg.sender) {\n                myItemCount += 1;\n            }\n        }\n        NftMerketItem[] memory nftItems = new NftMerketItem[](myItemCount);\n        for (uint256 i = 0; i < totalItemCount; i++) {\n            if (idForMarketItem[i + 1].owner == msg.sender) {\n                currentId = i + 1;\n                NftMerketItem memory currentItem = idForMarketItem[currentId];\n                nftItems[myCurrentIndex] = currentItem;\n                myCurrentIndex += 1;\n            }\n        }\n        return nftItems;\n    }\n\n    //Fetch  all unsold nft items\n    function getAllUnsoldItems() external view returns (NftMerketItem[] memory) {\n        uint256 totalItemCount = itemId.current();\n        uint256 myItemCount = itemId.current() - itemsSold.current();\n        uint256 myCurrentIndex;\n        uint256 currentId;\n        NftMerketItem[] memory nftItems = new NftMerketItem[](myItemCount);\n\n        for (uint256 i; i < totalItemCount; i++) {\n            if (idForMarketItem[i + 1].owner == address(0)) {\n                currentId = i + 1;\n                NftMerketItem memory currentItem = idForMarketItem[currentId];\n                nftItems[myCurrentIndex] = currentItem;\n                myCurrentIndex += 1;\n            }\n        }\n        return nftItems;\n    }\n\n    function withdraw() external onlyOwner {\n        (bool success, ) = owner().call{value: address(this).balance}(\"\");\n        require(success, \"withdraw failed\");\n    }\n\n    function gettheMarketFees() external view returns (uint256) {\n        return marketFees;\n    }\n}\n",
  "sourcePath": "/Volumes/Work/Work/CAYC/UnrealNFtMarketplace/contracts/NFTMarketPlace.sol",
  "compiler": {
    "name": "solc",
    "version": "0.8.9+commit.e5eed63a.Emscripten.clang"
  },
  "schemaVersion": "3.4.3",
  "updatedAt": "2022-11-02T03:11:43.272Z",
  "networkType": "ethereum",
  "devdoc": {
    "kind": "dev",
    "methods": {
      "owner()": {
        "details": "Returns the address of the current owner."
      },
      "renounceOwnership()": {
        "details": "Leaves the contract without owner. It will not be possible to call `onlyOwner` functions anymore. Can only be called by the current owner. NOTE: Renouncing ownership will leave the contract without an owner, thereby removing any functionality that is only available to the owner."
      },
      "transferOwnership(address)": {
        "details": "Transfers ownership of the contract to a new account (`newOwner`). Can only be called by the current owner."
      }
    },
    "version": 1
  },
  "userdoc": {
    "kind": "user",
    "methods": {},
    "version": 1
  }
}